{
  "_format": "hh-sol-artifact-1",
  "contractName": "MewAuctionApp",
  "sourceName": "contracts/MewAuctionApp.sol",
  "abi": [
    {
      "inputs": [
        {
          "internalType": "address",
          "name": "_admin",
          "type": "address"
        },
        {
          "internalType": "uint256",
          "name": "_minimalBid",
          "type": "uint256"
        }
      ],
      "stateMutability": "nonpayable",
      "type": "constructor"
    },
    {
      "inputs": [],
      "name": "MewAuctionEnded",
      "type": "error"
    },
    {
      "inputs": [
        {
          "internalType": "uint256",
          "name": "currentMax",
          "type": "uint256"
        }
      ],
      "name": "MewBidAmountLessEqThanMaxBid",
      "type": "error"
    },
    {
      "inputs": [],
      "name": "MewNoBalanceToWithdraw",
      "type": "error"
    },
    {
      "inputs": [],
      "name": "MewPermissionNotAllowed",
      "type": "error"
    },
    {
      "anonymous": false,
      "inputs": [
        {
          "indexed": false,
          "internalType": "address",
          "name": "winner",
          "type": "address"
        }
      ],
      "name": "MewAuctionEnd",
      "type": "event"
    },
    {
      "anonymous": false,
      "inputs": [
        {
          "indexed": false,
          "internalType": "address",
          "name": "user",
          "type": "address"
        },
        {
          "indexed": false,
          "internalType": "uint256",
          "name": "amount",
          "type": "uint256"
        }
      ],
      "name": "MewAuctionNewBid",
      "type": "event"
    },
    {
      "inputs": [],
      "name": "endAuction",
      "outputs": [],
      "stateMutability": "nonpayable",
      "type": "function"
    },
    {
      "inputs": [],
      "name": "getCurrentBid",
      "outputs": [
        {
          "internalType": "uint256",
          "name": "",
          "type": "uint256"
        }
      ],
      "stateMutability": "view",
      "type": "function"
    },
    {
      "inputs": [],
      "name": "getWinner",
      "outputs": [
        {
          "internalType": "address",
          "name": "",
          "type": "address"
        }
      ],
      "stateMutability": "view",
      "type": "function"
    },
    {
      "inputs": [],
      "name": "newBid",
      "outputs": [],
      "stateMutability": "payable",
      "type": "function"
    },
    {
      "inputs": [],
      "name": "withdraw",
      "outputs": [],
      "stateMutability": "nonpayable",
      "type": "function"
    }
  ],
  "bytecode": "0x60806040526000600360146101000a81548160ff02191690831515021790555034801561002b57600080fd5b50604051610825380380610825833981810160405281019061004d9190610135565b81600160006101000a81548173ffffffffffffffffffffffffffffffffffffffff021916908373ffffffffffffffffffffffffffffffffffffffff160217905550806002819055505050610175565b600080fd5b600073ffffffffffffffffffffffffffffffffffffffff82169050919050565b60006100cc826100a1565b9050919050565b6100dc816100c1565b81146100e757600080fd5b50565b6000815190506100f9816100d3565b92915050565b6000819050919050565b610112816100ff565b811461011d57600080fd5b50565b60008151905061012f81610109565b92915050565b6000806040838503121561014c5761014b61009c565b5b600061015a858286016100ea565b925050602061016b85828601610120565b9150509250929050565b6106a1806101846000396000f3fe60806040526004361061004a5760003560e01c80633ccfd60b1461004f5780637f1ecfe0146100665780638e7ea5b214610091578063d7097b49146100bc578063fe67a54b146100c6575b600080fd5b34801561005b57600080fd5b506100646100dd565b005b34801561007257600080fd5b5061007b610226565b6040516100889190610568565b60405180910390f35b34801561009d57600080fd5b506100a6610230565b6040516100b391906105c4565b60405180910390f35b6100c461025a565b005b3480156100d257600080fd5b506100db61040b565b005b60008060003373ffffffffffffffffffffffffffffffffffffffff1673ffffffffffffffffffffffffffffffffffffffff1681526020019081526020016000205411610155576040517f4d952de500000000000000000000000000000000000000000000000000000000815260040160405180910390fd5b60008060003373ffffffffffffffffffffffffffffffffffffffff1673ffffffffffffffffffffffffffffffffffffffff16815260200190815260200160002054905060008060003373ffffffffffffffffffffffffffffffffffffffff1673ffffffffffffffffffffffffffffffffffffffff168152602001908152602001600020819055503373ffffffffffffffffffffffffffffffffffffffff166108fc829081150290604051600060405180830381858888f19350505050158015610222573d6000803e3d6000fd5b5050565b6000600254905090565b6000600360009054906101000a900473ffffffffffffffffffffffffffffffffffffffff16905090565b600360149054906101000a900460ff16156102a1576040517f017a64ea00000000000000000000000000000000000000000000000000000000815260040160405180910390fd5b6002543411600254906102ea576040517f8973e7b40000000000000000000000000000000000000000000000000000000081526004016102e19190610568565b60405180910390fd5b50600254600080600360009054906101000a900473ffffffffffffffffffffffffffffffffffffffff1673ffffffffffffffffffffffffffffffffffffffff1673ffffffffffffffffffffffffffffffffffffffff168152602001908152602001600020600082825461035d919061060e565b925050819055503460028190555033600360006101000a81548173ffffffffffffffffffffffffffffffffffffffff021916908373ffffffffffffffffffffffffffffffffffffffff1602179055507fa95d39f96756fb5e7aefb07c750fca616cd051028cd30dca51bb2f546b244e37600360009054906101000a900473ffffffffffffffffffffffffffffffffffffffff16600254604051610401929190610642565b60405180910390a1565b600360149054906101000a900460ff1615610452576040517f017a64ea00000000000000000000000000000000000000000000000000000000815260040160405180910390fd5b600160009054906101000a900473ffffffffffffffffffffffffffffffffffffffff1673ffffffffffffffffffffffffffffffffffffffff163373ffffffffffffffffffffffffffffffffffffffff16146104d9576040517fa42787e000000000000000000000000000000000000000000000000000000000815260040160405180910390fd5b7f79bcec44292024a6dc254f2c9af6e9214371cd45be80e9f4c8cf58b92f085bc8600360009054906101000a900473ffffffffffffffffffffffffffffffffffffffff1660405161052a91906105c4565b60405180910390a16001600360146101000a81548160ff021916908315150217905550565b6000819050919050565b6105628161054f565b82525050565b600060208201905061057d6000830184610559565b92915050565b600073ffffffffffffffffffffffffffffffffffffffff82169050919050565b60006105ae82610583565b9050919050565b6105be816105a3565b82525050565b60006020820190506105d960008301846105b5565b92915050565b7f4e487b7100000000000000000000000000000000000000000000000000000000600052601160045260246000fd5b60006106198261054f565b91506106248361054f565b925082820190508082111561063c5761063b6105df565b5b92915050565b600060408201905061065760008301856105b5565b6106646020830184610559565b939250505056fea2646970667358221220d98276baffc65c54e937af596bc22c6d7348b819a9901dc609c9a39c5a9032dc64736f6c634300081b0033",
  "linkReferences": {},
  "deployedLinkReferences": {}
}