{
  "_format": "hh-sol-artifact-1",
  "contractName": "MewTokenAuctionApp",
  "sourceName": "contracts/MewTokenAuctionApp.sol",
  "abi": [
    {
      "inputs": [
        {
          "internalType": "address",
          "name": "_admin",
          "type": "address"
        },
        {
          "internalType": "uint256",
          "name": "_minimalBid",
          "type": "uint256"
        },
        {
          "internalType": "contract MewToken",
          "name": "_token",
          "type": "address"
        }
      ],
      "stateMutability": "nonpayable",
      "type": "constructor"
    },
    {
      "inputs": [],
      "name": "endAuction",
      "outputs": [],
      "stateMutability": "nonpayable",
      "type": "function"
    },
    {
      "inputs": [],
      "name": "getMaxBidAmount",
      "outputs": [
        {
          "internalType": "uint256",
          "name": "",
          "type": "uint256"
        }
      ],
      "stateMutability": "view",
      "type": "function"
    },
    {
      "inputs": [],
      "name": "getWinner",
      "outputs": [
        {
          "internalType": "address",
          "name": "",
          "type": "address"
        }
      ],
      "stateMutability": "view",
      "type": "function"
    },
    {
      "inputs": [
        {
          "internalType": "uint256",
          "name": "bidAmount",
          "type": "uint256"
        }
      ],
      "name": "newBid",
      "outputs": [],
      "stateMutability": "nonpayable",
      "type": "function"
    },
    {
      "inputs": [],
      "name": "withdraw",
      "outputs": [],
      "stateMutability": "nonpayable",
      "type": "function"
    }
  ],
  "bytecode": "0x60806040526000600360146101000a81548160ff02191690831515021790555034801561002b57600080fd5b50604051610413380380610413833981810160405281019061004d91906101b4565b826000806101000a81548173ffffffffffffffffffffffffffffffffffffffff021916908373ffffffffffffffffffffffffffffffffffffffff1602179055508160028190555080600360006101000a81548173ffffffffffffffffffffffffffffffffffffffff021916908373ffffffffffffffffffffffffffffffffffffffff160217905550505050610207565b600080fd5b600073ffffffffffffffffffffffffffffffffffffffff82169050919050565b600061010d826100e2565b9050919050565b61011d81610102565b811461012857600080fd5b50565b60008151905061013a81610114565b92915050565b6000819050919050565b61015381610140565b811461015e57600080fd5b50565b6000815190506101708161014a565b92915050565b600061018182610102565b9050919050565b61019181610176565b811461019c57600080fd5b50565b6000815190506101ae81610188565b92915050565b6000806000606084860312156101cd576101cc6100dd565b5b60006101db8682870161012b565b93505060206101ec86828701610161565b92505060406101fd8682870161019f565b9150509250925092565b6101fd806102166000396000f3fe608060405234801561001057600080fd5b50600436106100575760003560e01c80633ccfd60b1461005c578063652b5ec1146100665780638e7ea5b214610084578063e2543d1c146100a2578063fe67a54b146100be575b600080fd5b6100646100c8565b005b61006e6100ca565b60405161007b91906100f2565b60405180910390f35b61008c6100cf565b604051610099919061014e565b60405180910390f35b6100bc60048036038101906100b7919061019a565b6100d4565b005b6100c66100d7565b005b565b600090565b600090565b50565b565b6000819050919050565b6100ec816100d9565b82525050565b600060208201905061010760008301846100e3565b92915050565b600073ffffffffffffffffffffffffffffffffffffffff82169050919050565b60006101388261010d565b9050919050565b6101488161012d565b82525050565b6000602082019050610163600083018461013f565b92915050565b600080fd5b610177816100d9565b811461018257600080fd5b50565b6000813590506101948161016e565b92915050565b6000602082840312156101b0576101af610169565b5b60006101be84828501610185565b9150509291505056fea264697066735822122048f84cac4688e96458d0ac3c0c3d1a55f067f082e1295acde2d5c0edef33ea5f64736f6c634300081b0033",
  "linkReferences": {},
  "deployedLinkReferences": {}
}